:0400000007EF00F016
:0A00080073821BED08F03AEF0AF0D6
:10100000003738392F3435362A3132332D23303DED
:101010002B00001C02021F000000000E0A0A1B0A1F
:101020000E00180402011F00000007041F0404043E
:05103000042569000029
:101036000600F2A821EF08F023EF08F02CEF08F0E5
:10104600F2A228EF08F02AEF08F02CEF08F0A3EC44
:101056000AF0F0A631EF08F033EF08F03CEF08F0A5
:10106600F0A038EF08F03AEF08F03CEF08F0A1ECFA
:101076000AF0F0A841EF08F043EF08F04CEF08F053
:10108600F0A248EF08F04AEF08F04CEF08F09FECAA
:101096000AF0F2A651EF08F053EF08F06EEF08F0F1
:1010A600F2A058EF08F05AEF08F06EEF08F081A8AA
:1010B6005FEF08F061EF08F06EEF08F02304D8A4A4
:1010C60067EF08F069EF08F06EEF08F0000E236E88
:1010D600000E7CEC0AF0F2A673EF08F075EF08F04C
:1010E60090EF08F0F2A07AEF08F07CEF08F090EFAE
:1010F60008F081B881EF08F083EF08F090EF08F070
:101106002350D8A489EF08F08BEF08F090EF08F091
:10111600010E236E010E7CEC0AF0F2A695EF08F0A4
:1011260097EF08F0B2EF08F0F2A09CEF08F09EEF00
:1011360008F0B2EF08F081AAA3EF08F0A5EF08F0D7
:10114600B2EF08F02204D8A4ABEF08F0ADEF08F038
:10115600B2EF08F0000E226E000E6FEC0AF0F2A657
:10116600B7EF08F0B9EF08F0D4EF08F0F2A0BEEF41
:1011760008F0C0EF08F0D4EF08F081BAC5EF08F028
:10118600C7EF08F0D4EF08F02250D8A4CDEF08F04E
:10119600CFEF08F0D4EF08F0010E226E010E6FECCF
:1011A6000AF0F2A6D9EF08F0DBEF08F0F6EF08F048
:1011B600F2A0E0EF08F0E2EF08F0F6EF08F081ACFD
:1011C600E7EF08F0E9EF08F0F6EF08F02104D8A4FD
:1011D600EFEF08F0F1EF08F0F6EF08F0000E216EE1
:1011E600000E62EC0AF0F2A6FBEF08F0FDEF08F045
:1011F60018EF09F0F2A002EF09F004EF09F018EF7A
:1012060009F081BC09EF09F00BEF09F018EF09F0BE
:101216002150D8A411EF09F013EF09F018EF09F0E7
:10122600010E216E010E62EC0AF0F2A61DEF09F026
:101236001FEF09F03AEF09F0F2A024EF09F026EFCC
:1012460009F03AEF09F081AE2BEF09F02DEF09F026
:101256003AEF09F02004D8A433EF09F035EF09F08E
:101266003AEF09F0000E206E000E55EC0AF0F2A6D9
:101276003FEF09F041EF09F05CEF09F0F2A046EF0D
:1012860009F048EF09F05CEF09F081BE4DEF09F077
:101296004FEF09F05CEF09F02050D8A455EF09F0A4
:1012A60057EF09F05CEF09F0010E206E010E55ECC8
:1012B6000AF09DAC61EF09F063EF09F06CEF09F0FD
:1012C6009EAC68EF09F06AEF09F06CEF09F0A5EC47
:1012D6000AF0F2AA71EF09F073EF09F07CEF09F05A
:1012E600F2A478EF09F07AEF09F07CEF09F099ECB7
:1012F6000AF09DA081EF09F083EF09F08CEF09F069
:101306009EA088EF09F08AEF09F08CEF09F093ECC4
:101316000AF0739211006E506F10D8A495EF09F081
:1013260097EF09F099EF09F0DDEF09F0CD9020EE87
:1013360005F06E50D9266F50DA22DF50030B706E1F
:10134600703ACD507018CF0B7018CD6E6EC06CF021
:101356006FC06DF0DEEC09F020EE03F06E50D9267A
:101366006F50DA22DECF70F0DDCF71F071C070F011
:10137600716A7050CF6E20EE03F06E50D9266F5012
:10138600DA22DF50CE6E20EE03F06E50D9266F5073
:10139600DA22DECF44F0DDCF45F09D809E906EC010
:1013A600D9FF6FC0DAFFDECF46F0DDCF47F0F28E11
:1013B600F28CCD80120020EE05F06C50D9266D50CF
:1013C600DA22DFB4E9EF09F0EBEF09F0EEEF09F00E
:1013D600CD921CEF0AF020EE05F06C50D9266D5028
:1013E600DA22DFA4F9EF09F0FBEF09F01CEF0AF0AF
:1013F600CD8220EE05F06C50D9266D50DA22DFA69C
:1014060007EF0AF009EF0AF00CEF0AF0CD841CEFA3
:101416000AF020EE05F06C50D9266D50DA22DFB6C0
:1014260017EF0AF019EF0AF01CEF0AF0CD941CEF43
:101436000AF01200800F810F820F830F840F890F2D
:101446008A0F8B0F8C0F8D0F920F930F940F950FA2
:10145600960F0201010101323A030B131B232B33B2
:0D1466003B000000DC0B23020A121A222AB0
:101474003A0EF66E140EF76E000EF86E00EE01F0E2
:1014840010EE39F00900F5CFEEFFE550E150FAE136
:1014940000EE3AF0310EEE6AE806FDE173907392C5
:1014A400000189EF0AF06B6EF2906B50D8A45DEFE7
:1014B4000AF05FEF0AF061EF0AF061EF0AF0120040
:1014C4006B6EF2906B50D8A46AEF0AF06CEF0AF0DE
:1014D4006EEF0AF06EEF0AF012006B6EF2906B5032
:1014E400D8A477EF0AF079EF0AF07BEF0AF07BEFEC
:1014F4000AF012006B6EF2906B50D8A484EF0AF0DD
:1015040086EF0AF088EF0AF088EF0AF012002E0E38
:101514006E6E000E6F6E8EEC09F08FEF0AF007EF1F
:1015240000F09E904550CF6E44C0CEFF1200F2945E
:101534004B50D76E4AC0D6FF1200F0921200F090C2
:0A1544001200F29212009E9C1200A9
:020000040020DA
:08000000FFFFFFFFFFFFFFFF00
:020000040030CA
:0E000000FF02091EFF8181FF0FC00FE00F40BD
:00000001FF
